{
  "_format": "hh-sol-artifact-1",
  "contractName": "DimoriMain",
  "sourceName": "contracts/DimoriMain.sol",
  "abi": [
    {
      "inputs": [
        {
          "internalType": "uint256",
          "name": "_listingFee",
          "type": "uint256"
        },
        {
          "internalType": "address",
          "name": "_priceFeedAddress",
          "type": "address"
        }
      ],
      "stateMutability": "nonpayable",
      "type": "constructor"
    },
    {
      "inputs": [],
      "name": "AlreadyBooked",
      "type": "error"
    },
    {
      "inputs": [],
      "name": "InsufficientAmount",
      "type": "error"
    },
    {
      "inputs": [],
      "name": "InvalidBookingPeriod",
      "type": "error"
    },
    {
      "inputs": [],
      "name": "InvalidFee",
      "type": "error"
    },
    {
      "inputs": [],
      "name": "InvalidRentalId",
      "type": "error"
    },
    {
      "inputs": [],
      "name": "OnlyAdmin",
      "type": "error"
    },
    {
      "inputs": [],
      "name": "TransferFailed",
      "type": "error"
    },
    {
      "anonymous": false,
      "inputs": [
        {
          "indexed": false,
          "internalType": "uint256",
          "name": "rentalId",
          "type": "uint256"
        },
        {
          "indexed": false,
          "internalType": "address",
          "name": "renter",
          "type": "address"
        },
        {
          "indexed": false,
          "internalType": "uint256",
          "name": "bookDateStart",
          "type": "uint256"
        },
        {
          "indexed": false,
          "internalType": "uint256",
          "name": "bookDateEnd",
          "type": "uint256"
        },
        {
          "indexed": false,
          "internalType": "uint256",
          "name": "timestamp",
          "type": "uint256"
        }
      ],
      "name": "NewBookAdded",
      "type": "event"
    },
    {
      "anonymous": false,
      "inputs": [
        {
          "indexed": false,
          "internalType": "uint256",
          "name": "id",
          "type": "uint256"
        },
        {
          "indexed": false,
          "internalType": "address",
          "name": "owner",
          "type": "address"
        },
        {
          "indexed": false,
          "internalType": "string",
          "name": "name",
          "type": "string"
        },
        {
          "indexed": false,
          "internalType": "string",
          "name": "city",
          "type": "string"
        },
        {
          "indexed": false,
          "internalType": "string",
          "name": "theme",
          "type": "string"
        },
        {
          "indexed": false,
          "internalType": "string",
          "name": "contactAddress",
          "type": "string"
        },
        {
          "indexed": false,
          "internalType": "string",
          "name": "latitude",
          "type": "string"
        },
        {
          "indexed": false,
          "internalType": "string",
          "name": "longitude",
          "type": "string"
        },
        {
          "indexed": false,
          "internalType": "string",
          "name": "description",
          "type": "string"
        },
        {
          "indexed": false,
          "internalType": "string",
          "name": "imgUrl",
          "type": "string"
        },
        {
          "indexed": false,
          "internalType": "uint256",
          "name": "maxGuests",
          "type": "uint256"
        },
        {
          "indexed": false,
          "internalType": "uint256",
          "name": "pricePerDay",
          "type": "uint256"
        },
        {
          "indexed": false,
          "internalType": "uint256",
          "name": "timestamp",
          "type": "uint256"
        }
      ],
      "name": "NewRentalCreated",
      "type": "event"
    },
    {
      "inputs": [
        {
          "internalType": "string",
          "name": "_name",
          "type": "string"
        },
        {
          "internalType": "string",
          "name": "_city",
          "type": "string"
        },
        {
          "internalType": "string",
          "name": "_theme",
          "type": "string"
        },
        {
          "internalType": "string",
          "name": "_contactAddress",
          "type": "string"
        },
        {
          "internalType": "string",
          "name": "_latitude",
          "type": "string"
        },
        {
          "internalType": "string",
          "name": "_longitude",
          "type": "string"
        },
        {
          "internalType": "string",
          "name": "_description",
          "type": "string"
        },
        {
          "internalType": "string",
          "name": "_imgUrl",
          "type": "string"
        },
        {
          "internalType": "uint256",
          "name": "_maxGuests",
          "type": "uint256"
        },
        {
          "internalType": "uint256",
          "name": "_pricePerDay",
          "type": "uint256"
        }
      ],
      "name": "addRental",
      "outputs": [],
      "stateMutability": "payable",
      "type": "function"
    },
    {
      "inputs": [],
      "name": "admin",
      "outputs": [
        {
          "internalType": "address",
          "name": "",
          "type": "address"
        }
      ],
      "stateMutability": "view",
      "type": "function"
    },
    {
      "inputs": [
        {
          "internalType": "uint256",
          "name": "_id",
          "type": "uint256"
        },
        {
          "internalType": "uint256",
          "name": "_fromDateTimestamp",
          "type": "uint256"
        },
        {
          "internalType": "uint256",
          "name": "_toDateTimestamp",
          "type": "uint256"
        }
      ],
      "name": "bookDates",
      "outputs": [],
      "stateMutability": "payable",
      "type": "function"
    },
    {
      "inputs": [
        {
          "internalType": "uint256",
          "name": "_newFee",
          "type": "uint256"
        }
      ],
      "name": "changeListingFee",
      "outputs": [],
      "stateMutability": "nonpayable",
      "type": "function"
    },
    {
      "inputs": [
        {
          "internalType": "uint256",
          "name": "amountInUSD",
          "type": "uint256"
        }
      ],
      "name": "convertFromUSD",
      "outputs": [
        {
          "internalType": "uint256",
          "name": "",
          "type": "uint256"
        }
      ],
      "stateMutability": "view",
      "type": "function"
    },
    {
      "inputs": [],
      "name": "getPrice",
      "outputs": [
        {
          "internalType": "uint256",
          "name": "",
          "type": "uint256"
        },
        {
          "internalType": "uint256",
          "name": "",
          "type": "uint256"
        }
      ],
      "stateMutability": "view",
      "type": "function"
    },
    {
      "inputs": [
        {
          "internalType": "uint256",
          "name": "_id",
          "type": "uint256"
        }
      ],
      "name": "getRentalBookings",
      "outputs": [
        {
          "components": [
            {
              "internalType": "address",
              "name": "renter",
              "type": "address"
            },
            {
              "internalType": "uint256",
              "name": "fromTimestamp",
              "type": "uint256"
            },
            {
              "internalType": "uint256",
              "name": "toTimestamp",
              "type": "uint256"
            }
          ],
          "internalType": "struct DimoriMain.Booking[]",
          "name": "",
          "type": "tuple[]"
        }
      ],
      "stateMutability": "view",
      "type": "function"
    },
    {
      "inputs": [
        {
          "internalType": "uint256",
          "name": "_id",
          "type": "uint256"
        }
      ],
      "name": "getRentalInfo",
      "outputs": [
        {
          "components": [
            {
              "internalType": "uint256",
              "name": "id",
              "type": "uint256"
            },
            {
              "internalType": "address",
              "name": "owner",
              "type": "address"
            },
            {
              "internalType": "string",
              "name": "name",
              "type": "string"
            },
            {
              "internalType": "string",
              "name": "city",
              "type": "string"
            },
            {
              "internalType": "string",
              "name": "theme",
              "type": "string"
            },
            {
              "internalType": "string",
              "name": "contactAddress",
              "type": "string"
            },
            {
              "internalType": "string",
              "name": "latitude",
              "type": "string"
            },
            {
              "internalType": "string",
              "name": "longitude",
              "type": "string"
            },
            {
              "internalType": "string",
              "name": "description",
              "type": "string"
            },
            {
              "internalType": "string",
              "name": "imgUrl",
              "type": "string"
            },
            {
              "internalType": "uint256",
              "name": "maxNumberOfGuests",
              "type": "uint256"
            },
            {
              "internalType": "uint256",
              "name": "pricePerDay",
              "type": "uint256"
            }
          ],
          "internalType": "struct DimoriMain.RentalInfo",
          "name": "",
          "type": "tuple"
        }
      ],
      "stateMutability": "view",
      "type": "function"
    },
    {
      "inputs": [],
      "name": "getRentals",
      "outputs": [
        {
          "components": [
            {
              "internalType": "uint256",
              "name": "id",
              "type": "uint256"
            },
            {
              "internalType": "address",
              "name": "owner",
              "type": "address"
            },
            {
              "internalType": "string",
              "name": "name",
              "type": "string"
            },
            {
              "internalType": "string",
              "name": "city",
              "type": "string"
            },
            {
              "internalType": "string",
              "name": "theme",
              "type": "string"
            },
            {
              "internalType": "string",
              "name": "contactAddress",
              "type": "string"
            },
            {
              "internalType": "string",
              "name": "latitude",
              "type": "string"
            },
            {
              "internalType": "string",
              "name": "longitude",
              "type": "string"
            },
            {
              "internalType": "string",
              "name": "description",
              "type": "string"
            },
            {
              "internalType": "string",
              "name": "imgUrl",
              "type": "string"
            },
            {
              "internalType": "uint256",
              "name": "maxNumberOfGuests",
              "type": "uint256"
            },
            {
              "internalType": "uint256",
              "name": "pricePerDay",
              "type": "uint256"
            }
          ],
          "internalType": "struct DimoriMain.RentalInfo[]",
          "name": "",
          "type": "tuple[]"
        }
      ],
      "stateMutability": "view",
      "type": "function"
    },
    {
      "inputs": [],
      "name": "listingFee",
      "outputs": [
        {
          "internalType": "uint256",
          "name": "",
          "type": "uint256"
        }
      ],
      "stateMutability": "view",
      "type": "function"
    },
    {
      "inputs": [],
      "name": "priceFeedAddress",
      "outputs": [
        {
          "internalType": "address",
          "name": "",
          "type": "address"
        }
      ],
      "stateMutability": "view",
      "type": "function"
    },
    {
      "inputs": [
        {
          "internalType": "uint256",
          "name": "",
          "type": "uint256"
        }
      ],
      "name": "rentals",
      "outputs": [
        {
          "internalType": "uint256",
          "name": "id",
          "type": "uint256"
        },
        {
          "internalType": "address",
          "name": "owner",
          "type": "address"
        },
        {
          "internalType": "string",
          "name": "name",
          "type": "string"
        },
        {
          "internalType": "string",
          "name": "city",
          "type": "string"
        },
        {
          "internalType": "string",
          "name": "theme",
          "type": "string"
        },
        {
          "internalType": "string",
          "name": "contactAddress",
          "type": "string"
        },
        {
          "internalType": "string",
          "name": "latitude",
          "type": "string"
        },
        {
          "internalType": "string",
          "name": "longitude",
          "type": "string"
        },
        {
          "internalType": "string",
          "name": "description",
          "type": "string"
        },
        {
          "internalType": "string",
          "name": "imgUrl",
          "type": "string"
        },
        {
          "internalType": "uint256",
          "name": "maxNumberOfGuests",
          "type": "uint256"
        },
        {
          "internalType": "uint256",
          "name": "pricePerDay",
          "type": "uint256"
        }
      ],
      "stateMutability": "view",
      "type": "function"
    },
    {
      "inputs": [],
      "name": "withdrawBalance",
      "outputs": [],
      "stateMutability": "nonpayable",
      "type": "function"
    }
  ],
  "bytecode": "0x60806040523480156200001157600080fd5b506040516200299c3803806200299c83398101604081905262000034916200006b565b60018054336001600160a01b031991821617909155600292909255600080549092166001600160a01b0391909116179055620000aa565b600080604083850312156200007f57600080fd5b825160208401519092506001600160a01b03811681146200009f57600080fd5b809150509250929050565b6128e280620000ba6000396000f3fe6080604052600436106100a25760003560e01c806327dc3fbd146100a757806346e6e5fb146100dd5780635a576b5f146100f25780635ea5da20146101055780635fd8c710146101275780636a1b7ecc1461013c57806377f25f6f146101605780637eb897241461018057806395b36670146101ad57806398d5fdca146101cd578063af94a1d1146101f7578063e0abca0b1461022f578063f851a44014610267575b600080fd5b3480156100b357600080fd5b506100c76100c236600461202c565b610287565b6040516100d491906121ae565b60405180910390f35b6100f06100eb3660046121c1565b61082a565b005b6100f061010036600461228f565b610f30565b34801561011157600080fd5b5061011a6111be565b6040516100d491906123e3565b34801561013357600080fd5b506100f06116e2565b34801561014857600080fd5b5061015260025481565b6040519081526020016100d4565b34801561016c57600080fd5b506100f061017b36600461202c565b611784565b34801561018c57600080fd5b506101a061019b36600461202c565b6117b4565b6040516100d49190612445565b3480156101b957600080fd5b506101526101c836600461202c565b611863565b3480156101d957600080fd5b506101e26118a0565b604080519283526020830191909152016100d4565b34801561020357600080fd5b5061021761021236600461202c565b61198c565b6040516100d49c9b9a999897969594939291906124a7565b34801561023b57600080fd5b5060005461024f906001600160a01b031681565b6040516001600160a01b0390911681526020016100d4565b34801561027357600080fd5b5060015461024f906001600160a01b031681565b6102f46040518061018001604052806000815260200160006001600160a01b03168152602001606081526020016060815260200160608152602001606081526020016060815260200160608152602001606081526020016060815260200160008152602001600081525090565b8160035481106103175760405163018960b360e01b815260040160405180910390fd5b6004838154811061032a5761032a61257a565b90600052602060002090600c020160405180610180016040529081600082015481526020016001820160009054906101000a90046001600160a01b03166001600160a01b03166001600160a01b0316815260200160028201805461038d90612590565b80601f01602080910402602001604051908101604052809291908181526020018280546103b990612590565b80156104065780601f106103db57610100808354040283529160200191610406565b820191906000526020600020905b8154815290600101906020018083116103e957829003601f168201915b5050505050815260200160038201805461041f90612590565b80601f016020809104026020016040519081016040528092919081815260200182805461044b90612590565b80156104985780601f1061046d57610100808354040283529160200191610498565b820191906000526020600020905b81548152906001019060200180831161047b57829003601f168201915b505050505081526020016004820180546104b190612590565b80601f01602080910402602001604051908101604052809291908181526020018280546104dd90612590565b801561052a5780601f106104ff5761010080835404028352916020019161052a565b820191906000526020600020905b81548152906001019060200180831161050d57829003601f168201915b5050505050815260200160058201805461054390612590565b80601f016020809104026020016040519081016040528092919081815260200182805461056f90612590565b80156105bc5780601f10610591576101008083540402835291602001916105bc565b820191906000526020600020905b81548152906001019060200180831161059f57829003601f168201915b505050505081526020016006820180546105d590612590565b80601f016020809104026020016040519081016040528092919081815260200182805461060190612590565b801561064e5780601f106106235761010080835404028352916020019161064e565b820191906000526020600020905b81548152906001019060200180831161063157829003601f168201915b5050505050815260200160078201805461066790612590565b80601f016020809104026020016040519081016040528092919081815260200182805461069390612590565b80156106e05780601f106106b5576101008083540402835291602001916106e0565b820191906000526020600020905b8154815290600101906020018083116106c357829003601f168201915b505050505081526020016008820180546106f990612590565b80601f016020809104026020016040519081016040528092919081815260200182805461072590612590565b80156107725780601f1061074757610100808354040283529160200191610772565b820191906000526020600020905b81548152906001019060200180831161075557829003601f168201915b5050505050815260200160098201805461078b90612590565b80601f01602080910402602001604051908101604052809291908181526020018280546107b790612590565b80156108045780601f106107d957610100808354040283529160200191610804565b820191906000526020600020905b8154815290600101906020018083116107e757829003601f168201915b50505050508152602001600a8201548152602001600b8201548152505091505b50919050565b82600354811061084d5760405163018960b360e01b815260040160405180910390fd5b6000600485815481106108625761086261257a565b90600052602060002090600c020160405180610180016040529081600082015481526020016001820160009054906101000a90046001600160a01b03166001600160a01b03166001600160a01b031681526020016002820180546108c590612590565b80601f01602080910402602001604051908101604052809291908181526020018280546108f190612590565b801561093e5780601f106109135761010080835404028352916020019161093e565b820191906000526020600020905b81548152906001019060200180831161092157829003601f168201915b5050505050815260200160038201805461095790612590565b80601f016020809104026020016040519081016040528092919081815260200182805461098390612590565b80156109d05780601f106109a5576101008083540402835291602001916109d0565b820191906000526020600020905b8154815290600101906020018083116109b357829003601f168201915b505050505081526020016004820180546109e990612590565b80601f0160208091040260200160405190810160405280929190818152602001828054610a1590612590565b8015610a625780601f10610a3757610100808354040283529160200191610a62565b820191906000526020600020905b815481529060010190602001808311610a4557829003601f168201915b50505050508152602001600582018054610a7b90612590565b80601f0160208091040260200160405190810160405280929190818152602001828054610aa790612590565b8015610af45780601f10610ac957610100808354040283529160200191610af4565b820191906000526020600020905b815481529060010190602001808311610ad757829003601f168201915b50505050508152602001600682018054610b0d90612590565b80601f0160208091040260200160405190810160405280929190818152602001828054610b3990612590565b8015610b865780601f10610b5b57610100808354040283529160200191610b86565b820191906000526020600020905b815481529060010190602001808311610b6957829003601f168201915b50505050508152602001600782018054610b9f90612590565b80601f0160208091040260200160405190810160405280929190818152602001828054610bcb90612590565b8015610c185780601f10610bed57610100808354040283529160200191610c18565b820191906000526020600020905b815481529060010190602001808311610bfb57829003601f168201915b50505050508152602001600882018054610c3190612590565b80601f0160208091040260200160405190810160405280929190818152602001828054610c5d90612590565b8015610caa5780601f10610c7f57610100808354040283529160200191610caa565b820191906000526020600020905b815481529060010190602001808311610c8d57829003601f168201915b50505050508152602001600982018054610cc390612590565b80601f0160208091040260200160405190810160405280929190818152602001828054610cef90612590565b8015610d3c5780601f10610d1157610100808354040283529160200191610d3c565b820191906000526020600020905b815481529060010190602001808311610d1f57829003601f168201915b5050509183525050600a8201546020820152600b909101546040909101529050600062015180610d6c86866125db565b610d7691906125f2565b90506001811015610d9a5760405163a0955b6b60e01b815260040160405180910390fd5b600081610dab846101600151611863565b610db59190612614565b9050803414610dd757604051632ca2f52b60e11b815260040160405180910390fd5b610de2878787611e43565b15610e0057604051635f3bff1d60e11b815260040160405180910390fd5b600087815260056020908152604080832081516060810183523381528084018b81528184018b81528354600180820186559488528688209351600390910290930180546001600160a01b0319166001600160a01b03948516178155915193820193909355915160029092019190915591860151905191169034908381818185875af1925050503d8060008114610eb2576040519150601f19603f3d011682016040523d82523d6000602084013e610eb7565b606091505b5050905080610ed9576040516312171d8360e31b815260040160405180910390fd5b60408051898152336020820152908101889052606081018790524260808201527f8145f5f7785888577f4b907341639304ff8a5ad886ca425f513abe27b44285659060a00160405180910390a15050505050505050565b6002543414610f52576040516358d620b360e01b815260040160405180910390fd5b60035460408051610180810182528281523360208083019182529282018e8152606083018e9052608083018d905260a083018c905260c083018b905260e083018a905261010083018990526101208301889052610140830187905261016083018690526004805460018101825560009190915283517f8a35acfbc15ff81a39ae7d344fd709f28e8600b4aa8c65c6b64bfe7fe36bd19b600c90920291820190815592517f8a35acfbc15ff81a39ae7d344fd709f28e8600b4aa8c65c6b64bfe7fe36bd19c820180546001600160a01b0319166001600160a01b03909216919091179055905180519394859461106d937f8a35acfbc15ff81a39ae7d344fd709f28e8600b4aa8c65c6b64bfe7fe36bd19d019290910190611f93565b5060608201518051611089916003840191602090910190611f93565b50608082015180516110a5916004840191602090910190611f93565b5060a082015180516110c1916005840191602090910190611f93565b5060c082015180516110dd916006840191602090910190611f93565b5060e082015180516110f9916007840191602090910190611f93565b506101008201518051611116916008840191602090910190611f93565b506101208201518051611133916009840191602090910190611f93565b50610140820151600a82015561016090910151600b909101556003805490600061115c83612633565b91905055507fca935f633619cd90e48e2d14da64eb295a277535de0ad2d2fc18a37a57884de782338e8e8e8e8e8e8e8e8e8e426040516111a89d9c9b9a9998979695949392919061264e565b60405180910390a1505050505050505050505050565b60606004805480602002602001604051908101604052809291908181526020016000905b828210156116d95760008481526020908190206040805161018081018252600c86029092018054835260018101546001600160a01b0316938301939093526002830180549293929184019161123690612590565b80601f016020809104026020016040519081016040528092919081815260200182805461126290612590565b80156112af5780601f10611284576101008083540402835291602001916112af565b820191906000526020600020905b81548152906001019060200180831161129257829003601f168201915b505050505081526020016003820180546112c890612590565b80601f01602080910402602001604051908101604052809291908181526020018280546112f490612590565b80156113415780601f1061131657610100808354040283529160200191611341565b820191906000526020600020905b81548152906001019060200180831161132457829003601f168201915b5050505050815260200160048201805461135a90612590565b80601f016020809104026020016040519081016040528092919081815260200182805461138690612590565b80156113d35780601f106113a8576101008083540402835291602001916113d3565b820191906000526020600020905b8154815290600101906020018083116113b657829003601f168201915b505050505081526020016005820180546113ec90612590565b80601f016020809104026020016040519081016040528092919081815260200182805461141890612590565b80156114655780601f1061143a57610100808354040283529160200191611465565b820191906000526020600020905b81548152906001019060200180831161144857829003601f168201915b5050505050815260200160068201805461147e90612590565b80601f01602080910402602001604051908101604052809291908181526020018280546114aa90612590565b80156114f75780601f106114cc576101008083540402835291602001916114f7565b820191906000526020600020905b8154815290600101906020018083116114da57829003601f168201915b5050505050815260200160078201805461151090612590565b80601f016020809104026020016040519081016040528092919081815260200182805461153c90612590565b80156115895780601f1061155e57610100808354040283529160200191611589565b820191906000526020600020905b81548152906001019060200180831161156c57829003601f168201915b505050505081526020016008820180546115a290612590565b80601f01602080910402602001604051908101604052809291908181526020018280546115ce90612590565b801561161b5780601f106115f05761010080835404028352916020019161161b565b820191906000526020600020905b8154815290600101906020018083116115fe57829003601f168201915b5050505050815260200160098201805461163490612590565b80601f016020809104026020016040519081016040528092919081815260200182805461166090612590565b80156116ad5780601f10611682576101008083540402835291602001916116ad565b820191906000526020600020905b81548152906001019060200180831161169057829003601f168201915b50505050508152602001600a8201548152602001600b82015481525050815260200190600101906111e2565b50505050905090565b6001546001600160a01b0316331461170d57604051634755657960e01b815260040160405180910390fd5b6001546040516000916001600160a01b03169047908381818185875af1925050503d806000811461175a576040519150601f19603f3d011682016040523d82523d6000602084013e61175f565b606091505b5050905080611781576040516312171d8360e31b815260040160405180910390fd5b50565b6001546001600160a01b031633146117af57604051634755657960e01b815260040160405180910390fd5b600255565b60608160035481106117d95760405163018960b360e01b815260040160405180910390fd5b600083815260056020908152604080832080548251818502810185019093528083529193909284015b82821015611857576000848152602090819020604080516060810182526003860290920180546001600160a01b0316835260018082015484860152600290910154918301919091529083529092019101611802565b50505050915050919050565b60008060006118706118a0565b909250905060008261188383600a612811565b61188d9087612614565b61189791906125f2565b95945050505050565b6000805460408051633fabe5a360e21b8152905183926001600160a01b0316918391839163feaf968c9160048083019260a09291908290030181865afa1580156118ee573d6000803e3d6000fd5b505050506040513d601f19601f820116820180604052508101906119129190612839565b5050509150506000826001600160a01b031663313ce5676040518163ffffffff1660e01b8152600401602060405180830381865afa158015611958573d6000803e3d6000fd5b505050506040513d601f19601f8201168201806040525081019061197c9190612889565b919560ff90921694509092505050565b6004818154811061199c57600080fd5b60009182526020909120600c90910201805460018201546002830180549294506001600160a01b0390911692916119d290612590565b80601f01602080910402602001604051908101604052809291908181526020018280546119fe90612590565b8015611a4b5780601f10611a2057610100808354040283529160200191611a4b565b820191906000526020600020905b815481529060010190602001808311611a2e57829003601f168201915b505050505090806003018054611a6090612590565b80601f0160208091040260200160405190810160405280929190818152602001828054611a8c90612590565b8015611ad95780601f10611aae57610100808354040283529160200191611ad9565b820191906000526020600020905b815481529060010190602001808311611abc57829003601f168201915b505050505090806004018054611aee90612590565b80601f0160208091040260200160405190810160405280929190818152602001828054611b1a90612590565b8015611b675780601f10611b3c57610100808354040283529160200191611b67565b820191906000526020600020905b815481529060010190602001808311611b4a57829003601f168201915b505050505090806005018054611b7c90612590565b80601f0160208091040260200160405190810160405280929190818152602001828054611ba890612590565b8015611bf55780601f10611bca57610100808354040283529160200191611bf5565b820191906000526020600020905b815481529060010190602001808311611bd857829003601f168201915b505050505090806006018054611c0a90612590565b80601f0160208091040260200160405190810160405280929190818152602001828054611c3690612590565b8015611c835780601f10611c5857610100808354040283529160200191611c83565b820191906000526020600020905b815481529060010190602001808311611c6657829003601f168201915b505050505090806007018054611c9890612590565b80601f0160208091040260200160405190810160405280929190818152602001828054611cc490612590565b8015611d115780601f10611ce657610100808354040283529160200191611d11565b820191906000526020600020905b815481529060010190602001808311611cf457829003601f168201915b505050505090806008018054611d2690612590565b80601f0160208091040260200160405190810160405280929190818152602001828054611d5290612590565b8015611d9f5780601f10611d7457610100808354040283529160200191611d9f565b820191906000526020600020905b815481529060010190602001808311611d8257829003601f168201915b505050505090806009018054611db490612590565b80601f0160208091040260200160405190810160405280929190818152602001828054611de090612590565b8015611e2d5780601f10611e0257610100808354040283529160200191611e2d565b820191906000526020600020905b815481529060010190602001808311611e1057829003601f168201915b50505050509080600a01549080600b015490508c565b600083815260056020908152604080832080548251818502810185019093528083528493849084015b82821015611ec1576000848152602090819020604080516060810182526003860290920180546001600160a01b0316835260018082015484860152600290910154918301919091529083529092019101611e6c565b50505050905060005b8151811015611f8557818181518110611ee557611ee561257a565b6020026020010151602001518510158015611f1d5750818181518110611f0d57611f0d61257a565b6020026020010151604001518511155b80611f6d5750818181518110611f3557611f3561257a565b6020026020010151602001518410158015611f6d5750818181518110611f5d57611f5d61257a565b6020026020010151604001518411155b15611f7d57600192505050611f8c565b600101611eca565b5060009150505b9392505050565b828054611f9f90612590565b90600052602060002090601f016020900481019282611fc15760008555612007565b82601f10611fda57805160ff1916838001178555612007565b82800160010185558215612007579182015b82811115612007578251825591602001919060010190611fec565b50612013929150612017565b5090565b5b808211156120135760008155600101612018565b60006020828403121561203e57600080fd5b5035919050565b6001600160a01b03169052565b6000815180845260005b818110156120785760208185018101518683018201520161205c565b8181111561208a576000602083870101525b50601f01601f19169290920160200192915050565b60006101808251845260208301516120ba6020860182612045565b5060408301518160408601526120d282860182612052565b915050606083015184820360608601526120ec8282612052565b915050608083015184820360808601526121068282612052565b91505060a083015184820360a08601526121208282612052565b91505060c083015184820360c086015261213a8282612052565b91505060e083015184820360e08601526121548282612052565b915050610100808401518583038287015261216f8382612052565b92505050610120808401518583038287015261218b8382612052565b610140868101519088015261016095860151959096019490945250929392505050565b602081526000611f8c602083018461209f565b6000806000606084860312156121d657600080fd5b505081359360208301359350604090920135919050565b634e487b7160e01b600052604160045260246000fd5b600082601f83011261221457600080fd5b81356001600160401b038082111561222e5761222e6121ed565b604051601f8301601f19908116603f01168101908282118183101715612256576122566121ed565b8160405283815286602085880101111561226f57600080fd5b836020870160208301376000602085830101528094505050505092915050565b6000806000806000806000806000806101408b8d0312156122af57600080fd5b8a356001600160401b03808211156122c657600080fd5b6122d28e838f01612203565b9b5060208d01359150808211156122e857600080fd5b6122f48e838f01612203565b9a5060408d013591508082111561230a57600080fd5b6123168e838f01612203565b995060608d013591508082111561232c57600080fd5b6123388e838f01612203565b985060808d013591508082111561234e57600080fd5b61235a8e838f01612203565b975060a08d013591508082111561237057600080fd5b61237c8e838f01612203565b965060c08d013591508082111561239257600080fd5b61239e8e838f01612203565b955060e08d01359150808211156123b457600080fd5b506123c18d828e01612203565b9350506101008b013591506101208b013590509295989b9194979a5092959850565b6000602080830181845280855180835260408601915060408160051b870101925083870160005b8281101561243857603f1988860301845261242685835161209f565b9450928501929085019060010161240a565b5092979650505050505050565b602080825282518282018190526000919060409081850190868401855b8281101561249a57815180516001600160a01b0316855286810151878601528501518585015260609093019290850190600101612462565b5091979650505050505050565b60006101808e83526124bc602084018f612045565b8060408401526124ce8184018e612052565b905082810360608401526124e2818d612052565b905082810360808401526124f6818c612052565b905082810360a084015261250a818b612052565b905082810360c084015261251e818a612052565b905082810360e08401526125328189612052565b90508281036101008401526125478188612052565b905082810361012084015261255c8187612052565b610140840195909552505061016001529a9950505050505050505050565b634e487b7160e01b600052603260045260246000fd5b600181811c908216806125a457607f821691505b6020821081141561082457634e487b7160e01b600052602260045260246000fd5b634e487b7160e01b600052601160045260246000fd5b6000828210156125ed576125ed6125c5565b500390565b60008261260f57634e487b7160e01b600052601260045260246000fd5b500490565b600081600019048311821515161561262e5761262e6125c5565b500290565b6000600019821415612647576126476125c5565b5060010190565b8d815261265e602082018e612045565b6101a0604082015260006126766101a083018e612052565b8281036060840152612688818e612052565b9050828103608084015261269c818d612052565b905082810360a08401526126b0818c612052565b905082810360c08401526126c4818b612052565b905082810360e08401526126d8818a612052565b90508281036101008401526126ed8189612052565b90508281036101208401526127028188612052565b6101408401969096525050610160810192909252610180909101529a9950505050505050505050565b600181815b8085111561276657816000190482111561274c5761274c6125c5565b8085161561275957918102915b93841c9390800290612730565b509250929050565b60008261277d5750600161280b565b8161278a5750600061280b565b81600181146127a057600281146127aa576127c6565b600191505061280b565b60ff8411156127bb576127bb6125c5565b50506001821b61280b565b5060208310610133831016604e8410600b84101617156127e9575081810a61280b565b6127f3838361272b565b8060001904821115612807576128076125c5565b0290505b92915050565b6000611f8c838361276e565b80516001600160501b038116811461283457600080fd5b919050565b600080600080600060a0868803121561285157600080fd5b61285a8661281d565b945060208601519350604086015192506060860151915061287d6080870161281d565b90509295509295909350565b60006020828403121561289b57600080fd5b815160ff81168114611f8c57600080fdfea2646970667358221220f2447b093e3655985813d92886bdd5a229cad0f95be1af41e880b408a96664c364736f6c634300080a0033",
  "linkReferences": {},
  "deployedLinkReferences": {}
}